:020000040800F2
:100000001808002061130008691300086D13000828
:100010007113000875130008791300080000000030
:100020000000000000000000000000007D13000838
:10003000811300080000000085130008730F0008FA
:10004000891300088D130008911300089513000808
:10005000991300089D130008A1130008A5130008B8
:10006000A9130008AD130008B1130008B513000868
:10007000B9130008BD130008C1130008C513000818
:10008000C9130008CD130008D1130008D5130008C8
:10009000D9130008DD130008E1130008E513000878
:1000A000E9130008ED1300089D090008F11300088A
:1000B000B90A000875110008F5130008F9130008C3
:1000C000FD130008011400080514000809140008B5
:1000D0000D14000811140008151400081914000864
:1000E0001D140008211400082514000880B5B0F183
:1000F000804F13D09049884219D0904988421FD030
:100100008F49884225D101214FF4006000F030FB77
:1001100000214FF4006000F02BFB1AE001210120C8
:1001200000F036FB0021012000F032FB11E001213C
:10013000022000F02DFB0021022000F029FB08E046
:100140000121042000F024FB0021042000F020FB0A
:10015000FFE701BD10B4028812F08F02028003880D
:10016000CC884A881443234303808A8882850A887E
:100170000285734A904201D1097A01860121818268
:1001800010BC704730B4002400250023038C4FF6C8
:10019000FE7213400384058C8388048B4FF68F72A4
:1001A00014400A8814434FF6FD7215400A8915431E
:1001B0004A881543CA888286614A904213D14FF615
:1001C000F77215404A8915434FF6FB7215408A882D
:1001D000154347F6FF62134047F6FF5213408A89E2
:1001E0001343C9890B4383800483058430BC704763
:1001F00030B4002400250023038C4FF6EF72134027
:100200000384058C8388048B48F6FF7214400A88A7
:1002100054EA02244FF6DF7215400A8955EA0215A6
:100220004A8855EA0215CA880287454A904217D182
:100230004FF67F7215404A8955EA02154FF6BF7294
:1002400015408A8855EA021547F6FF32134047F2F7
:10025000FF7213408A8953EA8203C98953EA8103F2
:1002600083800483058430BC704730B400240025AB
:100270000023038C4FF6FF6213400384058C8388B0
:10028000848B4FF68F7214400A8814434FF6FF5246
:1002900015400A8955EA02254A8855EA0225CA8886
:1002A0008287274A904217D14FF2FF7215404A8940
:1002B00055EA02254FF6FF3215408A8855EA022595
:1002C00046F6FF72134045F6FF7213408A8953EADF
:1002D0000213C98953EA011383808483058430BCE7
:1002E000704730B4002300240025038C4EF6FF72C3
:1002F00013400384048C8588838B48F6FF72134077
:100300000A8853EA02234DF6FF7214400A8954EA20
:1003100002344A8854EA0234CA88A0F84020084AC5
:10032000904204D1AD04AD0C898955EA81158580D0
:100330008383048430BC7047000400400008004000
:10034000002C014038B504000D00288800280AD18F
:100350002B89AA886988200000F073F9E9882000B9
:1003600000F02DF925E0288804280AD12B89AA88D5
:100370006988200000F081F9E988200000F028F960
:1003800017E0288808280AD12B89AA8869882000C4
:1003900000F091F9E988200000F024F909E02B89A8
:1003A000AA886988200000F0A4F9E988200000F0FC
:1003B00022F931BD0B884A8813438A881343CA88BF
:1003C00013430A8913434A89134389890B43A0F8CD
:1003D00044307047C9B2002904D0018851F00101AE
:1003E000018004E0028840F2FE310A40028070473A
:1003F000C9B2002906D0B0F8441051F40041A0F869
:10040000441005E0B0F844104904490CA0F8441029
:1004100070470023D2B2002A04D08289114381811F
:10042000838903E0828932EA0101818170470023D8
:1004300003894FF68F72134019430B0003817047F5
:10044000C9B2002904D0818851F00401818004E000
:1004500082884FF6FB710A4082807047C9B200293A
:1004600004D0818851F00101818004E082884FF638
:10047000FE710A40828070470023038B4FF6F772AB
:10048000134019430B00038370470023038B4FF283
:10049000FF72134053EA0123038370470023838BC9
:1004A0004FF6F772134019430B008383704710B463
:1004B000038C01248C40A3430384038C92B212FA70
:1004C00001F11943018410BC704710B4038C04245B
:1004D0008C40A3430384038C92B212FA01F11943B6
:1004E000018410BC704730B4038C01248C40A343BA
:1004F000038489B2002902D089B2082919D189B2AE
:1005000010EB610318331C684FF68F731C4089B2DF
:1005100010EB610318331C6089B210EB61031833D0
:100520001B6892B21A4389B210EB61001830026066
:100530001DE00B1F9BB210EB630418340B1F9BB222
:1005400010EB630318331D6848F6FF731D402560E8
:100550000B1F9BB210EB63031833091F89B210EB1A
:10056000610018300068120292B202431A6030BC77
:100570007047C9B2002904D0818851F08001818080
:1005800004E082884FF67F710A408280704783883A
:100590004FF68F72134083808288114381807047A9
:1005A00003894FF6F87213400381028911430181D8
:1005B0007047818670470187704781877047038B3A
:1005C0004FF6F37213400383028B1143018370478C
:1005D000038B4FF2FF3213400383028B52EA012256
:1005E00002837047838B4FF6F37213408383828BB1
:1005F000114381837047838B4FF2FF321340838313
:10060000828B52EA01228283704789B2C9430182F8
:1006100070470200002000230020138A0B409089BD
:10062000014008009BB2002B04D080B2002801D00A
:10063000012000E00020C0B2704789B2C9430182A6
:10064000704770B400250026058C4FF6FE742540D7
:100650000584058B068C4FF60C74254052EA031274
:100660002A4315004FF6FD72164051F00101314347
:100670000E000583068470BC704770B4002400250A
:100680000026058C4FF6EF7425400584048B058CFD
:1006900009010E0040F6FF410C4054EA033454EACD
:1006A00002244FF6DF710D4056F0100635430483E7
:1006B000058470BC704770B4002400250026058CAA
:1006C0004FF6FF6425400584848B058C09020E00DB
:1006D0004FF60C710C4052EA0312224314004FF6FD
:1006E000FF510D4056F4807635438483058470BCF9
:1006F000704770B4002400250026058C4EF6FF7468
:1007000025400584848B058C09030E0040F6FF41CB
:100710000C401B0353EA022323431C004DF6FF71D8
:100720000D4056F4805635438483058470BC704771
:10073000C9B2002905D01E49096808431C49086050
:1007400005E01B49096831EA000019490860704753
:10075000C9B2002905D0174909680843154908603E
:1007600005E01449096831EA000012490860704741
:10077000C9B2002905D01049096808430E4908602C
:1007800005E00D49096831EA00000B49086070472F
:10079000C9B2002905D0094909680843074908601A
:1007A00005E00649096831EA00000449086070471D
:1007B000181002401C1002400C10024010100240A1
:1007C00080B5012140F60C40FFF7B2FF0121032064
:1007D000FFF7BEFF01BD70B58EB004000D0016001E
:1007E000DFF8AC05FFF782FC4FF4E060ADF80000E5
:1007F00018208DF8030003208DF802006946DFF809
:10080000940500F0D3FA4FF46040ADF8000069465B
:10081000DFF8840500F0CAFA4FF48050ADF800000C
:1008200004208DF803006946DFF86C0500F0BEFA7D
:10083000ADF82840ADF82C500020ADF82E00402037
:10084000ADF82A0000208DF830000AA9DFF8400535
:10085000FFF780FC0020ADF808000120ADF80A0089
:100860000420ADF80C000C20ADF80E004FF48070A1
:10087000ADF814000020ADF81600F6B2002E03D03B
:10088000022E0FD007D314E00220ADF8100008208C
:10089000ADF8120013E00220ADF810000020ADF812
:1008A00012000CE00020ADF810000820ADF8120096
:1008B00005E00020ADF810000020ADF8120002A9FC
:1008C000DFF8CC04FFF75EFC02A9DFF8C404FFF7F1
:1008D0008FFC02A9DFF8B804FFF7C7FC6020ADF871
:1008E00008000C20ADF80E000220ADF810004FF407
:1008F0008070ADF8140002A9DFF89404FFF7F1FC52
:100900000821DFF88C04FFF7B7FD0821DFF8800429
:10091000FFF7BBFD0821DFF87804FFF7BFFD4FF4B8
:100920000060ADF818004FF48060ADF81A000020A8
:10093000ADF81C000020ADF81E000020ADF820002E
:100940000020ADF822004FF48040ADF8240006A945
:10095000DFF83C04FFF72EFD0121DFF83404FFF738
:100960007DFD00F0DFF91021DFF82404FFF75FFDC3
:100970000121DFF81C04FFF73BFD1A208DF804006D
:1009800000208DF8050001208DF8060001208DF86B
:10099000070001A800F076FA0EB070BD80B52021E6
:1009A000DFF8EC03FFF735FE002804D02021DFF844
:1009B000E003FFF742FE01BD00B58DB00720ADF8A2
:1009C000040003208DF8060048208DF8070001A9D7
:1009D000DFF8C00300F0EAF95FF08040FFF786FB24
:1009E0000120ADF814000020ADF816004FF6FF709E
:1009F000ADF818000020ADF81A0005A95FF080409E
:100A0000FFF7A8FB01215FF08040FFF7B2FD402116
:100A10005FF08040FFF70BFD04215FF08040FFF79F
:100A2000BFFD0020ADF808000020ADF80A0003204B
:100A3000ADF80C000020ADF80E000120ADF810005C
:100A400002A95FF08040FFF77DFC7020ADF8200028
:100A50000120ADF822000020ADF828000120ADF8FB
:100A6000260008A95FF08040FFF7C2FB01215FF07C
:100A70008040FFF7F3FC04215FF08040FFF7C5FDE5
:100A800050215FF08040FFF782FD012206215FF0D8
:100A90008040FFF7BEFC1C208DF8000000208DF880
:100AA000010002208DF8020001208DF80300684645
:100AB00000F0E8F90DB000BD80B504215FF0804082
:100AC000FFF7A7FD002815D004215FF08040FFF755
:100AD000B4FDB2480088B2490880AE4800F0C8F9B9
:100AE00010F00700AF49087010221021AD480078BF
:100AF00000F001F801BD38B50C001500C0B20128A6
:100B00002AD1220092B20021A148FFF7ECFC012279
:100B100000219F48FFF7CBFC002204219C48FFF7EF
:100B2000D4FC002204219A48FFF7C1FC00220421D2
:100B30009748FFF7CAFC2A0092B208219448FFF7B1
:100B4000D2FC002208219248FFF7B1FC04220821C0
:100B50008F48FFF7BAFCE4E0C0B203282AD1002294
:100B600000218B48FFF7A3FC002200218848FFF7F3
:100B7000ACFC220092B204218548FFF7B4FC0122AC
:100B800004218348FFF793FC002204218048FFF7EB
:100B90009CFC2A0092B208217D48FFF7A4FC0022A9
:100BA00008217B48FFF783FC042208217848FFF7DF
:100BB0008CFCB6E0C0B207282AD12A0092B20021EC
:100BC0007348FFF790FC002200217148FFF76FFC8B
:100BD000042200216E48FFF778FC220092B2042123
:100BE0006B48FFF780FC012204216948FFF75FFC96
:100BF000002204216648FFF768FC002208216448AF
:100C0000FFF755FC002208216148FFF75EFC88E0F1
:100C1000C0B206282AD12A0092B200215C48FFF710
:100C200062FC002200215A48FFF741FC0422002107
:100C30005748FFF74AFC002204215548FFF737FCCC
:100C4000002204215248FFF740FC220092B2082102
:100C50004F48FFF748FC012208214D48FFF727FCC9
:100C6000002208214A48FFF730FC5AE0C0B20428AD
:100C70002AD1002200214648FFF719FC002200215A
:100C80004348FFF722FC2A0092B204214048FFF7B4
:100C90002AFC002204213E48FFF709FC042204211B
:100CA0003B48FFF712FC220092B208213848FFF7B8
:100CB0001AFC012208213648FFF7F9FB002208211F
:100CC0003348FFF702FC2CE0C0B2002829D12200F3
:100CD00092B200212E48FFF706FC012200212C4889
:100CE000FFF7E5FB002200212948FFF7EEFB2A0071
:100CF00092B204212648FFF7F6FB00220421244883
:100D0000FFF7D5FB042204212148FFF7DEFB002278
:100D100008211F48FFF7CBFB002208211C48FFF7E2
:100D2000D4FB31BD80B501211948FFF789FB01BD16
:100D300080B501211648FFF74DFB01BD80B50021AC
:100D40001348FFF747FB01BD80B501215FF08040EC
:100D5000FFF740FB01BD704738B50C0015000100DE
:100D600089B20B48FFF725FC210089B20848FFF73C
:100D700022FC290089B20648FFF71FFC31BD0A4852
:100D8000008850F480500849088070470000000037
:100D9000002C014000080140000C014034000040DC
:100DA0000C00002010000020442C014070B40023EF
:100DB00000220025002600240022CB7813F00F0328
:100DC000CA78D20601D58A7813430A78120621D050
:100DD000046800251BE0CA78482A17D10122AA40DE
:100DE000026113E00126AE400A883240B2420DD1C2
:100DF000AE000F22B240944313FA06F626433400A5
:100E0000CA78282AE7D10122AA4042616D1C082D28
:100E1000E8D304600A88B2F5807F27DB44680025A8
:100E200021E0012215F1080612FA06F60A8832407E
:100E3000B24217D1AE000F22B240944313FA06F625
:100E400026433400CA78282A04D1012615F1080265
:100E500096404661CA78482A04D1012615F1080255
:100E6000964006616D1C082DDBD3446070BC704752
:100E7000806880B2704789B20161704789B2416170
:100E80007047000010B4002100220F23C178002910
:100E90001FD01849096811F4E061D1F5E061090A31
:100EA000D1F10402CB404478110014FA01F18278A8
:100EB000134019430901104A0378D15401210278E3
:100EC00012F01F0291400D4A03785B1142F8231083
:100ED00009E00121027812F01F029140084A0378CC
:100EE0005B1142F8231005490078401151F8202089
:100EF00010BC70470CED00E000E400E000E100E011
:100F000080E100E040B2002804D40901484A40B220
:100F1000115407E00901474A40B210F00F00104495
:100F200000F8041C704780B5411EB1F1807F01D3E9
:100F300001200EE0401E404908600F215FF0FF30A5
:100F4000FFF7E0FF00203D49086007203C490860AA
:100F5000002002BD80B53B4800684FF47A71B0FBB9
:100F6000F1F0FFF7E0FF00215FF0FF30FFF7CAFF6D
:100F700001BD35480068401C3349086033480068AB
:100F80000D2804D231480068401C304908602F48C1
:100F900000680C2806D12E480078012802D10220D2
:100FA0002B490870704780B5284800680C2802D388
:100FB0000020264908602548026892B2234801684B
:100FC00089B22248006880B2FFF7C6FE01BD80B535
:100FD00000F044F8FFF7BEFFFFF7F2FBFFF7ECFC71
:100FE000032219210020FFF7F6FBFFF7A1FEFFF710
:100FF000ABFE012016490870012016490870012037
:101000001549087001E0FFF799FE114800780028A3
:10101000F9D0022806D002D3032806D0F5E7FFF75F
:10102000C2FFF2E7FFF797FEEFE7FFF7A8FEECE756
:1010300000E400E018ED00E014E000E018E000E05B
:1010400010E000E000000020080000200400002064
:101050000E0000200F0000201100002080B53E4847
:10106000006850F001003C4908603C4801683C4879
:1010700001403A480160384801683A480140364822
:1010800001603548006830F48020334908603348F7
:10109000006830F4FE00314908602F480068000302
:1010A000000B2D4908605FF41F002F49086000F015
:1010B00005F85FF000602D49086001BD80B500F0C3
:1010C00001F801BD00202449096851F00101224ABC
:1010D0001160214909688907FBD54FF480611F4AD7
:1010E00011601E49096831F480311C4A11601A49A7
:1010F000096831F08071184A11601749096831F0A8
:10110000F841154A11601449096851F0E051124A3A
:1011100011601321164A11600F49096851F080715E
:101120000D4A11600C4909688901FBD50B49096812
:1011300089088900094A11600849096851F00201CB
:10114000064A116004E005480068800810F00300BA
:10115000C0B20228F7D170470010024004100240CC
:101160000C00FFF8FFFFF6FE0810024008ED00E05B
:101170000020024080B501214548FFF74AFA0028C7
:1011800005D001214248FFF758FA00F001F801BDEF
:1011900080B542480078012811D140213D48FFF731
:1011A0006AFE80213B48FFF766FE01213A48FFF7BF
:1011B00065FE3A480078401C3849087066E03748B8
:1011C0000078022811D140213248FFF754FE8021D7
:1011D0003048FFF750FE01212F48FFF74CFE2F4803
:1011E0000078401C2D49087050E02C4800780328F6
:1011F00011D140212748FFF741FE80212548FFF704
:101200003AFE01212448FFF736FE24480078401CAE
:10121000224908703AE021480078042811D1402181
:101220001C48FFF72BFE80211A48FFF727FE0121FB
:101230001948FFF720FE19480078401C174908702C
:1012400024E016480078052811D140211148FFF705
:1012500015FE80210F48FFF711FE01210E48FFF710
:101260000DFE0E480078401C0C4908700EE040212D
:101270000848FFF700FE80210648FFF7FFFD012127
:101280000548FFF7FBFD01200449087001BD00007F
:101290000004004000080140000C01401100002043
:1012A00030B5016884684218416802EB5103C907F0
:1012B0000BD54C4409E012F9011B12F8015B00291F
:1012C00004F8015B05D5491CF9D19A42F3D10C30E1
:1012D00030BD491EF1D5F8E710B5074979441831FA
:1012E000064C7C44163404E00A68081D1144884703
:1012F0000146A142F8D110BD080000001400000012
:10130000A1FFFFFF240100000E00000000000020EC
:1013100000F00BF8002801D0FFF7DEFF0020AFF34C
:101320000080FFF754FE00F002F80120704700F043
:1013300001B800000746384600F002F8FBE700005D
:1013400080B5AFF30080024A11001820ABBEFBE766
:1013500026000200AFF30080AFF30080FFF7D8FF54
:101360000048004755130008FFF7FEBFFFF7FEBF18
:10137000FFF7FEBFFFF7FEBFFFF7FEBFFFF7FEBFA1
:10138000FFF7FEBFFFF7FEBFFFF7FEBFFFF7FEBF91
:10139000FFF7FEBFFFF7FEBFFFF7FEBFFFF7FEBF81
:1013A000FFF7FEBFFFF7FEBFFFF7FEBFFFF7FEBF71
:1013B000FFF7FEBFFFF7FEBFFFF7FEBFFFF7FEBF61
:1013C000FFF7FEBFFFF7FEBFFFF7FEBFFFF7FEBF51
:1013D000FFF7FEBFFFF7FEBFFFF7FEBFFFF7FEBF41
:1013E000FFF7FEBFFFF7FEBFFFF7FEBFFFF7FEBF31
:1013F000FFF7FEBFFFF7FEBFFFF7FEBFFFF7FEBF21
:10140000FFF7FEBFFFF7FEBFFFF7FEBFFFF7FEBF10
:10141000FFF7FEBFFFF7FEBFFFF7FEBFFFF7FEBF00
:0F142000FFF7FEBFFFF7FEBF0300D8B805F200CD
:040000050800135587
:00000001FF
