:020000040800F2
:1000000010080020351200083D12000841120008B7
:1000100045120008491200084D12000800000000B7
:100020000000000000000000000000005112000865
:100030005512000800000000591200081F110008A6
:100040005D120008611200086512000869120008BC
:100050006D1200087112000875120008791200086C
:100060007D1200088112000885120008891200081C
:100070008D120008911200089512000899120008CC
:100080009D120008A1120008A5120008A91200087C
:10009000AD120008B1120008B5120008B91200082C
:1000A000BD120008C1120008C5120008C9120008DC
:1000B0006B0A00086D0E0008CD120008D11200086E
:1000C000D5120008D9120008DD120008E11200085C
:1000D000E5120008E9120008ED120008F11200080C
:1000E000F5120008F9120008FD12000880B5B0F101
:1000F000804F13D09049884219D0904988421FD030
:100100008F49884225D101214FF4006000F02AFB7D
:1001100000214FF4006000F025FB1AE001210120CE
:1001200000F030FB0021012000F02CFB11E0012148
:10013000022000F027FB0021022000F023FB08E052
:100140000121042000F01EFB0021042000F01AFB16
:10015000FFE701BD10B4028812F08F02028003880D
:10016000CC884A881443234303808A8882850A887E
:100170000285734A904201D1097A01860121818268
:1001800010BC704730B4002400250023038C4FF6C8
:10019000FE7213400384058C8388048B4FF68F72A4
:1001A00014400A8814434FF6FD7215400A8915431E
:1001B0004A881543CA888286614A904213D14FF615
:1001C000F77215404A8915434FF6FB7215408A882D
:1001D000154347F6FF62134047F6FF5213408A89E2
:1001E0001343C9890B4383800483058430BC704763
:1001F00030B4002400250023038C4FF6EF72134027
:100200000384058C8388048B48F6FF7214400A88A7
:1002100054EA02244FF6DF7215400A8955EA0215A6
:100220004A8855EA0215CA880287454A904217D182
:100230004FF67F7215404A8955EA02154FF6BF7294
:1002400015408A8855EA021547F6FF32134047F2F7
:10025000FF7213408A8953EA8203C98953EA8103F2
:1002600083800483058430BC704730B400240025AB
:100270000023038C4FF6FF6213400384058C8388B0
:10028000848B4FF68F7214400A8814434FF6FF5246
:1002900015400A8955EA02254A8855EA0225CA8886
:1002A0008287274A904217D14FF2FF7215404A8940
:1002B00055EA02254FF6FF3215408A8855EA022595
:1002C00046F6FF72134045F6FF7213408A8953EADF
:1002D0000213C98953EA011383808483058430BCE7
:1002E000704730B4002300240025038C4EF6FF72C3
:1002F00013400384048C8588838B48F6FF72134077
:100300000A8853EA02234DF6FF7214400A8954EA20
:1003100002344A8854EA0234CA88A0F84020084AC5
:10032000904204D1AD04AD0C898955EA81158580D0
:100330008383048430BC7047000400400008004000
:10034000002C014038B504000D00288800280AD18F
:100350002B89AA886988200000F06DF9E9882000BF
:1003600000F027F925E0288804280AD12B89AA88DB
:100370006988200000F07BF9E988200000F022F96C
:1003800017E0288808280AD12B89AA8869882000C4
:1003900000F08BF9E988200000F01EF909E02B89B4
:1003A000AA886988200000F09EF9E988200000F002
:1003B0001CF931BD0B884A8813438A881343CA88C5
:1003C00013430A8913434A89134389890B43A0F8CD
:1003D00044307047C9B2002904D0018851F00101AE
:1003E000018004E0028840F2FE310A40028070473A
:1003F000C9B2002906D0B0F8441051F40041A0F869
:10040000441005E0B0F844104904490CA0F8441029
:1004100070470023D2B2002A04D08289114381811F
:10042000838903E0828932EA0101818170470023D8
:1004300003894FF68F72134019430B0003817047F5
:10044000C9B2002904D0818851F00401818004E000
:1004500082884FF6FB710A4082807047C9B200293A
:1004600004D0818851F00101818004E082884FF638
:10047000FE710A40828070470023038B4FF6F772AB
:10048000134019430B00038370470023038B4FF283
:10049000FF72134053EA0123038370470023838BC9
:1004A0004FF6F772134019430B008383704710B463
:1004B000038C01248C40A3430384038C92B212FA70
:1004C00001F11943018410BC704710B4038C04245B
:1004D0008C40A3430384038C92B212FA01F11943B6
:1004E000018410BC704730B4038C01248C40A343BA
:1004F000038489B2002902D089B2082919D189B2AE
:1005000010EB610318331C684FF68F731C4089B2DF
:1005100010EB610318331C6089B210EB61031833D0
:100520001B6892B21A4389B210EB61001830026066
:100530001DE00B1F9BB210EB630418340B1F9BB222
:1005400010EB630318331D6848F6FF731D402560E8
:100550000B1F9BB210EB63031833091F89B210EB1A
:10056000610018300068120292B202431A6030BC77
:100570007047C9B2002904D0818851F08001818080
:1005800004E082884FF67F710A408280704783883A
:100590004FF68F72134083808288114381807047A9
:1005A00003894FF6F87213400381028911430181D8
:1005B0007047038B4FF6F37213400383028B114392
:1005C00001837047038B4FF2FF3213400383028B8A
:1005D00052EA012202837047838B4FF6F372134075
:1005E0008383828B114381837047838B4FF2FF3269
:1005F00013408383828B52EA01228283704789B23F
:10060000C943018270470200002000230020138AA2
:100610000B409089014008009BB2002B04D080B2AF
:10062000002801D0012000E00020C0B2704789B24C
:10063000C9430182704770B400250026058C4FF62F
:10064000FE7425400584058B068C4FF60C742540FE
:1006500052EA03122A4315004FF6FD72164051F07C
:10066000010131430E000583068470BC704770B4ED
:10067000002400250026058C4FF6EF7425400584E4
:10068000048B058C09010E0040F6FF410C4054EA32
:10069000033454EA02244FF6DF710D4056F0100681
:1006A00035430483058470BC704770B40024002572
:1006B0000026058C4FF6FF6425400584848B058C4D
:1006C00009020E004FF60C710C4052EA031222434D
:1006D00014004FF6FF510D4056F480763543848365
:1006E000058470BC704770B4002400250026058C7A
:1006F0004EF6FF7425400584848B058C09030E009B
:1007000040F6FF410C401B0353EA022323431C0025
:100710004DF6FF710D4056F48056354384830584B1
:1007200070BC7047C9B2002905D01E49096808434A
:100730001C49086005E01B49096831EA00001949B5
:1007400008607047C9B2002905D0174909680843F5
:100750001549086005E01449096831EA00001249AA
:1007600008607047C9B2002905D0104909680843DC
:100770000E49086005E00D49096831EA00000B499F
:1007800008607047C9B2002905D0094909680843C3
:100790000749086005E00649096831EA0000044994
:1007A00008607047181002401C1002400C100240F4
:1007B0001010024080B5012140F60C40FFF7B2FF57
:1007C00001210320FFF7BEFF01BD70B58CB004000E
:1007D0000D0016004FF4E060ADF8000018208DF811
:1007E000030003208DF802006946DFF8100500F0D1
:1007F00091FA4FF46040ADF800006946DFF800055B
:1008000000F088FA4FF48050ADF8000004208DF815
:1008100003006946DFF8E80400F07CFAADF82440F4
:10082000ADF828500020ADF82A004020ADF8260091
:1008300000208DF82C0009A9DFF8C804FFF78AFC16
:100840000020ADF804000120ADF806000420ADF84A
:1008500008000C20ADF80A004FF48070ADF81000CD
:100860000020ADF81200F6B2002E03D0022E0FD0F9
:1008700007D314E00220ADF80C000820ADF80E00FC
:1008800013E00220ADF80C000020ADF80E000CE0E3
:100890000020ADF80C000820ADF80E0005E00020A7
:1008A000ADF80C000020ADF80E0001A9DFF85404EB
:1008B000FFF768FC01A9DFF84C04FFF799FC01A9D8
:1008C000DFF84004FFF7D1FC6020ADF804000320FE
:1008D000ADF80A000220ADF80C004FF48070ADF8BE
:1008E000100001A9DFF81C04FFF7FBFC0821DFF86A
:1008F0001404FFF7C1FD0821DFF80804FFF7C5FD68
:100900000821DFF80004FFF7C9FD4FF40060ADF8DF
:1009100014004FF48060ADF816000020ADF8180008
:100920000020ADF81A000020ADF81C000020ADF842
:100930001E004FF48040ADF8200005A9DFF8C40385
:10094000FFF738FD0121DFF8BC03FFF787FD00F05A
:10095000C2F91021DFF8AC03FFF769FD0121DFF8D0
:10096000A403FFF745FD0CB070BD00B58DB00720A6
:10097000ADF8040003208DF8060048208DF807002C
:1009800001A9DFF8780300F0C5F95FF08040FFF7B8
:10099000ADFB0020ADF814000020ADF816004FF6B6
:1009A000FF70ADF818000020ADF81A0005A95FF03F
:1009B0008040FFF7CFFB01215FF08040FFF7D9FDBA
:1009C00040215FF08040FFF732FD04215FF080405E
:1009D000FFF7E6FD0020ADF808000020ADF80A00A2
:1009E0000320ADF80C000020ADF80E000120ADF89A
:1009F000100002A95FF08040FFF7A4FC7020ADF862
:100A000020000120ADF822000020ADF828000120D0
:100A1000ADF8260008A95FF08040FFF7E9FB01214F
:100A20005FF08040FFF71AFD04215FF08040FFF780
:100A3000E6FD50215FF08040FFF7A9FD012206216D
:100A40005FF08040FFF7E5FC1C208DF800000020DF
:100A50008DF8010000208DF8020001208DF80300C0
:100A6000684600F0C3F90DB000BD80B504215FF009
:100A70008040FFF7C8FD002815D004215FF08040BA
:100A8000FFF7D5FDA0480088A04908809B4800F0EA
:100A9000A3F910F007009E490870102260219C48BD
:100AA000007800F001F801BD38B50C001500C0B2A7
:100AB00001282AD1220092B200219248FFF713FDAB
:100AC000012200218F48FFF7F2FC002204218D480B
:100AD000FFF7FBFC002204218A48FFF7E8FC002214
:100AE00004218848FFF7F1FC2A0092B208218548CA
:100AF000FFF7F9FC002208218248FFF7D8FC042206
:100B000008218048FFF7E1FCE4E0C0B203282AD1C5
:100B1000002200217B48FFF7CAFC0022002179480F
:100B2000FFF7D3FC220092B204217648FFF7DBFCEA
:100B3000012204217348FFF7BAFC00220421714806
:100B4000FFF7C3FC2A0092B208216E48FFF7CBFCE6
:100B5000002208216B48FFF7AAFC042208216948FB
:100B6000FFF7B3FCB6E0C0B207282AD12A0092B240
:100B700000216448FFF7B7FC002200216148FFF71D
:100B800096FC042200215F48FFF79FFC220092B2EE
:100B900004215C48FFF7A7FC012204215948FFF714
:100BA00086FC002204215748FFF78FFC0022082111
:100BB0005448FFF77CFC002208215248FFF785FCCF
:100BC00088E0C0B206282AD12A0092B200214D48FE
:100BD000FFF789FC002200214A48FFF768FC042245
:100BE00000214848FFF771FC002204214548FFF727
:100BF0005EFC002204214348FFF767FC220092B20A
:100C000008214048FFF76FFC012208213D48FFF70B
:100C10004EFC002208213B48FFF757FC5AE0C0B2C7
:100C200004282AD1002200213648FFF740FC002288
:100C300000213448FFF749FC2A0092B204213148D0
:100C4000FFF751FC002204212E48FFF730FC04225C
:100C500004212C48FFF739FC220092B208212948D0
:100C6000FFF741FC012208212648FFF720FC002263
:100C700008212448FFF729FC2CE0C0B2002829D124
:100C8000220092B200211F48FFF72DFC0122002113
:100C90001C48FFF70CFC002200211A48FFF715FC46
:100CA0002A0092B204211748FFF71DFC00220421FC
:100CB0001448FFF7FCFB042204211248FFF705FC4F
:100CC000002208210F48FFF7F2FB002208210D48FF
:100CD000FFF7FBFB31BD80B501210A48FFF7B0FBF0
:100CE00001BD80B501210748FFF774FB01BD80B548
:100CF00001215FF08040FFF76DFB01BD000801405E
:100D0000000C0140002C014034000040080000208D
:100D10000A00002070B400230022002500260024D1
:100D20000022CB7813F00F03CA78D20601D58A7857
:100D300013430A78120621D0046800251BE0CA7804
:100D4000482A17D10122AA40026113E00126AE40D1
:100D50000A883240B2420DD1AE000F22B240944315
:100D600013FA06F626433400CA78282AE7D101226E
:100D7000AA4042616D1C082DE8D304600A88B2F5D0
:100D8000807F27DB4468002521E0012215F1080659
:100D900012FA06F60A883240B24217D1AE000F228C
:100DA000B240944313FA06F626433400CA78282A40
:100DB00004D1012615F1080296404661CA78482AF6
:100DC00004D1012615F10802964006616D1C082D1C
:100DD000DBD3446070BC7047806880B2704789B2D2
:100DE0000161704789B241617047000010B4002171
:100DF00000220F23C17800291FD01849096811F477
:100E0000E061D1F5E061090AD1F10402CB404478F8
:100E1000110014FA01F18278134019430901104AB4
:100E20000378D1540121027812F01F0291400D4A3B
:100E300003785B1142F8231009E00121027812F0D7
:100E40001F029140084A03785B1142F823100549BC
:100E50000078401151F8202010BC70470CED00E0E4
:100E600000E400E000E100E080E100E080B5012165
:100E70004548FFF7C8FB002805D001214248FFF78D
:100E8000D6FB00F001F801BD80B54248007801288A
:100E900011D140213D48FFF7A2FF80213B48FFF7D9
:100EA0009EFF01213A48FFF79DFF3A480078401C19
:100EB0003849087066E037480078022811D140218F
:100EC0003248FFF78CFF80213048FFF788FF01216F
:100ED0002F48FFF784FF2F480078401C2D490870E9
:100EE00050E02C480078032811D140212748FFF713
:100EF00079FF80212548FFF772FF01212448FFF781
:100F00006EFF24480078401C224908703AE02148CE
:100F10000078042811D140211C48FFF763FF80218D
:100F20001A48FFF75FFF01211948FFF758FF1948DA
:100F30000078401C1749087024E0164800780528FE
:100F400011D140211148FFF74DFF80210F48FFF7D5
:100F500049FF01210E48FFF745FF0E480078401C6D
:100F60000C4908700EE040210848FFF738FF802147
:100F70000648FFF737FF01210548FFF733FF01203F
:100F80000449087001BD0000000400400008014051
:100F9000000C01400B00002080B53E48006850F076
:100FA00001003C4908603C4801683C4801403A481F
:100FB0000160384801683A480140364801603548C8
:100FC000006830F48020334908603348006830F40A
:100FD000FE00314908602F4800680003000B2D49CE
:100FE00008605FF41F002F49086000F005F85FF00B
:100FF00000602D49086001BD80B500F001F801BD19
:1010000000202449096851F00101224A1160214958
:1010100009688907FBD54FF480611F4A11601E499A
:10102000096831F480311C4A11601A49096831F0AD
:101030008071184A11601749096831F0F841154A62
:1010400011601449096851F0E051124A11601321EE
:10105000164A11600F49096851F080710D4A1160FC
:101060000C4909688901FBD50B4909688908890081
:10107000094A11600849096851F00201064A1160E5
:1010800004E005480068800810F00300C0B20228A0
:10109000F7D1704700100240041002400C00FFF826
:1010A000FFFFF6FE0810024008ED00E000200240BD
:1010B00040B2002804D409011C4A40B2115407E090
:1010C00009011B4A40B210F00F00104400F8041C44
:1010D000704780B5411EB1F1807F01D301200EE041
:1010E000401E144908600F215FF0FF30FFF7E0FF5A
:1010F000002011490860072010490860002002BD47
:1011000080B50F4800684FF47A71B0FBF1F0FFF73B
:10111000E0FF00215FF0FF30FFF7CAFF01BD094883
:101120000068401C074908607047000000E400E0C8
:1011300018ED00E014E000E018E000E010E000E04E
:10114000000000200400002080B5FFF725FFFFF716
:10115000D7FFFFF72FFBFFF708FC03221921002020
:10116000FFF733FBFFF7BDFDFFF7C1FDFEE710B44E
:1011700050F8041B79B10268436802440830DC0768
:1011800044BFA9F10104E31852F8044B43F8044B9F
:10119000091FF9D1ECE710BC7047000010B50749F2
:1011A00079441831064C7C44163404E00A68081D62
:1011B000114488470146A142F8D110BD0800000043
:1011C00018000000ABFFFFFF0C0000005C000000F7
:1011D000000000200000000000F00BF8002801D003
:1011E000FFF7DCFF0020AFF30080FFF7ADFF00F05A
:1011F00002F80120704700F001B8000007463846A9
:1012000000F002F8FBE7000080B5AFF30080024A6F
:1012100011001820ABBEFBE726000200AFF30080F0
:10122000AFF30080FFF7D8FF00D8B805000000003A
:1012300000000000004800471D120008FFF7FEBF35
:10124000FFF7FEBFFFF7FEBFFFF7FEBFFFF7FEBFD2
:10125000FFF7FEBFFFF7FEBFFFF7FEBFFFF7FEBFC2
:10126000FFF7FEBFFFF7FEBFFFF7FEBFFFF7FEBFB2
:10127000FFF7FEBFFFF7FEBFFFF7FEBFFFF7FEBFA2
:10128000FFF7FEBFFFF7FEBFFFF7FEBFFFF7FEBF92
:10129000FFF7FEBFFFF7FEBFFFF7FEBFFFF7FEBF82
:1012A000FFF7FEBFFFF7FEBFFFF7FEBFFFF7FEBF72
:1012B000FFF7FEBFFFF7FEBFFFF7FEBFFFF7FEBF62
:1012C000FFF7FEBFFFF7FEBFFFF7FEBFFFF7FEBF52
:1012D000FFF7FEBFFFF7FEBFFFF7FEBFFFF7FEBF42
:1012E000FFF7FEBFFFF7FEBFFFF7FEBFFFF7FEBF32
:1012F000FFF7FEBFFFF7FEBFFFF7FEBFFFF7FEBF22
:040000050800121DC0
:00000001FF
